:020000040800F2
:1000000050090020E1120008B5100008B7100008E0
:10001000BB100008BF100008C3100008000000005B
:10002000000000000000000000000000C7100008F1
:10003000C910000800000000CB100008CD10000817
:10004000FB120008FB120008FB120008FB1200085C
:10005000FB120008FB120008FB120008FB1200084C
:10006000FB120008FB120008FB120008FB1200083C
:10007000FB120008FB120008FB120008FB1200082C
:10008000FB120008FB120008FB120008FB1200081C
:10009000FB120008FB120008FB120008FB1200080C
:1000A000FB120008FB120008FB120008FB120008FC
:1000B000FB120008AD3D0008FB120008FB1200080F
:1000C000FB120008FB120008FB120008FB120008DC
:1000D000FB1200086F340008FB120008E934000826
:1000E000FB120008FB120008FB120008FB120008BC
:1000F000FB120008FB120008FB120008FB120008AC
:10010000FB120008FB120008FB120008FB1200089B
:10011000FB120008FB120008FB120008FB1200088B
:10012000FB120008FB120008FB120008FB1200087B
:10013000FB120008FB120008FB120008FB1200086B
:10014000FB120008FB120008FB120008FB1200085B
:10015000FB120008FB120008FB120008FB1200084B
:10016000FB120008FB120008FB120008FB1200083B
:10017000FB120008FB120008FB120008FB1200082B
:10018000FB120008FB12000800F002F800F044F82F
:100190000AA090E8000C82448344AAF10107DA45E2
:1001A00001D100F039F8AFF2090EBAE80F0013F0F0
:1001B000010F18BFFB1A43F001031847A4AD00005C
:1001C000C4AD0000103A24BF78C878C1FAD85207ED
:1001D00024BF30C830C144BF04680C6070470000C1
:1001E0000023002400250026103A28BF78C1FBD840
:1001F000520728BF30C148BF0B607047642905F023
:100200001582782905F04E82002070471FB505F051
:1002100031FB1FBD10B510BD05F0FCFA1146FFF70C
:10022000F5FF00F009F805F01AFB03B4FFF7F2FF41
:1002300003BC03F0BDF8000000264FF4A06001F0FD
:100240006FF84FF4E13003F0C0F84FF4E13003F001
:1002500088F9A82003F092FA03F0D6FD03F006FC1B
:1002600004F0BEF804F002F904F069FC6FF07F407E
:1002700004F053FC04F0B8FBFE4804F039FC002005
:1002800004F039FC002004F0C3FB04F084F86BE1B7
:10029000F94802F081FFF94908700846007808B370
:1002A00008460178F44802F073FFF44800781228F9
:1002B0000AD2DFE800F0090A0B0C0D0E0F10111224
:1002C000130909090909141500BF00BF00BF00BFC9
:1002D00000BF00BF00BF00BF00BF00BF00BF00BF26
:1002E00000BF00BF04F018F90446012C22D10226F9
:1002F0000121E34801F050FC01280DD10121E04823
:1003000001F066FC04F070FB4FF6FF73DDA2502194
:10031000AC2005F01BF981E00121D94801F056FC21
:1003200004F062FB4FF6FF73DAA25021AC2005F017
:100330000DF973E0022C22D102264021D04801F0B1
:100340002BFC01280DD14021CD4801F041FC04F0E7
:100350004BFB4FF6FF73D2A25021AC2005F0F6F80C
:100360005CE04021C64801F031FC04F03DFB4FF653
:10037000FF73CFA25021AC2005F0E8F84EE0042C2A
:100380002BD10E21CDA005F011F90125012604F095
:100390002BFB4FF6FF73CAA200218C2005F0D6F884
:1003A0004FF6FF73CAA22821BC2005F0CFF84FF604
:1003B000FF73C9A25021BC2005F0C8F84FF6FF73A7
:1003C000C7A27821BC2005F0C1F84FF6FF73C6A282
:1003D000A021BC2005F0BAF820E0052C01D16D1C4D
:1003E0001CE0062C01D16D1E18E0072C0AD1022654
:1003F00004F0FAFA4FF6FF73BDA25021AC2005F0CD
:10040000A5F80BE0082C09D1022604F0EDFA4FF60E
:10041000FF73B9A25021AC2005F098F8012D02DA43
:10042000012E00D10425052D02DB012E00D101256E
:10043000012D24D1012E22D14FF6FF73A0A200215D
:100440008C2005F083F84AF2A333A1A22821BC2016
:1004500005F07CF84FF6FF739FA25021BC2005F0F9
:1004600075F84FF6FF739EA27821BC2005F06EF858
:100470004FF6FF739CA2A021BC2005F067F8022D67
:1004800024D1012E22D14FF6FF738DA200218C20A2
:1004900005F05CF84FF6FF738DA22821BC2005F013
:1004A00055F84AF2A3338CA25021BC2005F04EF837
:1004B0004FF6FF738AA27821BC2005F047F84FF66B
:1004C000FF7389A2A021BC2005F040F8032D24D1A0
:1004D000012E22D14FF6FF7379A200218C2005F066
:1004E00035F84FF6FF737AA22821BC2005F02EF8CC
:1004F0004FF6FF7378A25021BC2005F027F84AF28E
:10050000A33377A27821BC2005F020F84FF6FF73C3
:1005100075A2A021BC2005F019F8042D24D1012ECC
:1005200022D14FF6FF7366A200218C2005F00EF851
:100530004FF6FF7366A22821BC2005F007F84FF69E
:10054000FF7365A25021BC2005F000F84FF6FF7341
:1005500063A27821BC2004F0F9FF4AF2A33362A21F
:10056000A021BC2004F0F2FF92E610B54FF47A749B
:10057000634804F0BDFA002004F0BDFA4FF47F0098
:1005800004F0CBFA04F030FA204603F059F94FF4A6
:100590007F4004F0C2FA04F027FA204603F050F935
:1005A000FF2004F0BAFA04F01FFA204603F048F9DD
:1005B000544804F0B2FA04F017FA204603F040F968
:1005C0006FF07F4004F0A9FA04F00EFA204603F021
:1005D00037F9002004F0A1FA04F006FA204603F0EF
:1005E0002FF910BD10B56424002004F096FA04F031
:1005F000FBF96FF07F4004F07EFA1E4804F078FAB1
:1006000041A20021084604F006FC204603F018F938
:100610003B4804F06DFA40A22021002004F0FBFBCF
:10062000204603F00DF9414804F062FA40A2382157
:10063000002004F0F0FB204603F002F9414804F0EA
:1006400057FA41A24C21002004F0E5FB204603F0BC
:10065000F7F8434804F04CFA42A25C21002004F071
:10066000DAFB204603F0ECF84FF6FF7004F043FA93
:100670003B4885E044000020004800400000002086
:1006800000100240B9D8B1D5CAD6CAC6CAB6B1F0B0
:1006900000000000CAD6CAC6CAB6B1F0D6D0000063
:1006A000B9D8B1D5D3EFD2F4CAB6B1F0000000008A
:1006B000D3EFD2F4CAB6B1F0D6D000002564000062
:1006C000B2E8D2B6D1A1D4F1BDE7C3E60000000084
:1006D000CCFAB9DBD2F40000B5A5B4D4B2E800007E
:1006E000CBAECFC9B2E80000B4F3BAECC5DB000072
:1006F000CFB4B1ADD6D00000C5DDB2E8D6D0000091
:10070000500000202C2C2C002123242526272829CA
:100710002A2B2C2D2E303100212324252627282971
:100720002A2B2C2D2E303132333400005C00002077
:1007300021232425262728292A2B2C2D2E3031321F
:10074000333435006800002021232425262728295A
:100750002A2B2C2D2E303132333435363700000021
:100760007400002021232425262728292A2B2C2D1C
:100770002E303132333435363738393A0000000004
:1007800004F0B6F9AFF224026821002004F043FB24
:10079000204603F055F8FE4804F0AAF9AFF25802DB
:1007A0007421002004F037FB204603F049F8F94893
:1007B00004F09EF9AFF288028421002004F02BFBA4
:1007C000204603F03DF8F44804F092F9AFF2B80285
:1007D0009821002004F01FFB204603F031F8EF4879
:1007E00004F086F9AFF2E002B021002004F013FB20
:1007F000204603F025F8E94804F07AF9E84804F0C7
:100800007AF90923E74ADC21002004F02FFB204677
:1008100003F016F8002004F068F90923E24AFC21ED
:10082000002004F023FB204603F00AF8012004F026
:100830005CF9092340F2D2424FF48E71002004F09B
:1008400015FB204602F0FCFF4FF4FA6002F0F8FFBF
:1008500010BD10B5002004F060F904F0C5F8CC48D4
:1008600004F046F9FF2004F046F910238222032108
:100870006E2004F073FDCDA20321002004F0CBFA1A
:100880004FF47F4004F037F91023822219216E20A3
:1008900004F064FDC8A21921002004F0BCFA4FF452
:1008A0007F0004F028F9102382222F216E2004F00B
:1008B00055FDC4A22F21002004F0ADFA4FF6FF70C1
:1008C00004F019F91023822245216E2004F046FD20
:1008D000BEA24521002004F09EFA4FF0FF1004F064
:1008E0000AF9102382225B216E2004F037FDBAA2A0
:1008F0005B21002004F08FFAA94804F0FCF81023D3
:10090000822271216E2004F029FDB6A271210020FF
:1009100004F081FAB64804F0EEF810238222872111
:100920006E2004F01BFDB3A28721002004F073FAAF
:10093000B34804F0E0F8102382229D216E2004F0D9
:100940000DFDB0A29D21002004F065FAB04804F02E
:10095000D2F810238222B3216E2004F0FFFCADA256
:10096000B321002004F057FAAD4804F0C4F8102376
:100970008222C9216E2004F0F1FCAAA2C921002024
:1009800004F049FAA2487F3004F0B5F8102382221F
:10099000DF216E2004F0E2FCA5A2DF21002004F09C
:1009A0003AFA9F487F3004F0A6F810238222F521FE
:1009B0006E2004F0D3FCA1A2F521002004F02BFA54
:1009C0007748803004F097F81023822240F20B1110
:1009D0006E2004F0C3FC9DA240F20B11002004F035
:1009E0001AFA9E4804F087F81023822240F221115F
:1009F0006E2004F0B3FC9AA240F22111002004F012
:100A00000AFA4FF4FA6002F01BFF10BD10B5002087
:100A100004F083F803F0E8FF604804F069F8002070
:100A200004F069F87E487F3004F077F88FA2002147
:100A3000084604F0F0F95A4804F06FF88BA2282118
:100A4000002004F0E8F94FF6FF7004F066F887A282
:100A50005021002004F0DFF900240DE04FF47F0165
:100A6000A1EB044004F047F8BE232246962120461D
:100A700004F055FA601C84B2F02CEFDB00240DE08A
:100A80004FF47F41A1EB042004F035F8F023224617
:100A9000C821204604F043FA601C84B2F02CEFDB3E
:100AA00000240CE0C4F1FF0004F025F84FF491732A
:100AB0002246FA21204604F032FA601C84B2F02C5F
:100AC000F0DB4FF4FA6002F0BBFE10BD10B550240D
:100AD000002004F022F803F087FF4FF47F0004F0B9
:100AE0000AF80A23F0221946002004F018FA2046DA
:100AF00002F0A6FE1423F0221946002004F00FFA9B
:100B0000204602F09DFE1E23F0221946002004F02C
:100B100006FA204602F094FE2823F022194600200F
:100B200004F0FDF9204602F08BFE1D4803F0E3FFC0
:100B30009623F0225521052004F085FA204602F084
:100B40007FFE7823BE2264211E2004F07CFA20461A
:100B500002F076FE5A238C227321372004F073FAB8
:100B6000204602F06DFE3C235A228721502004F0DB
:100B70006AFA204602F064FE25487F3003F0BBFF8E
:100B80006422AA21782004F084FA204678E000004C
:100B9000680000205C00002050000020440000207D
:100BA00000FFFF009999991940E201004C43445F0E
:100BB000424C5545000000004C43445F47524545B8
:100BC0004E0000004C43445F524544004C43445F98
:100BD0004359414E000000004C43445F4D4147459E
:100BE0004E5441004C43445F59454C4C4F57000014
:100BF0002C2C2C004C43445F475245590000000008
:100C0000FF8080004C494748545F424C55450000E6
:100C100080FF80004C494748545F475245454E008D
:100C20008080FF004C494748545F52454400000013
:100C30004C494748545F4359414E00004C4947488E
:100C4000545F4D4147454E54410000004C494748D0
:100C5000545F59454C4C4F5700000000A3A3A3001C
:100C60004C494748545F47524559000020202043D3
:100C70006F6C6F7220546573742020200000000098
:100C800002F0DEFD5022AA21782004F002FA20466C
:100C900002F0D6FD3C22AA21782004F0FAF9204681
:100CA00002F0CEFD2822AA21782004F0F2F9204695
:100CB00002F0C6FD48F2800003F01DFF40F21D1354
:100CC000F0221946002004F02AF9204602F0B8FD6F
:100CD00040F22713F0221946002004F020F92046A4
:100CE00002F0AEFD40F23113F0221946002004F06C
:100CF00016F9204602F0A4FD40F23B13F0221946FB
:100D0000002004F00CF9204602F09AFD4FF47A70AE
:100D100002F096FD002003F000FF03F065FE4FF4A3
:100D20007F0003F0E8FE3C225021104604F03BFB1C
:100D30004FF47F4003F0DFFE3C225021782004F086
:100D400032FBFF2003F0D7FE3C225021A02004F00C
:100D50002AFBC84803F0CFFE32236E22FA21782006
:100D600004F0E3F9204602F06BFD28235F22FA210C
:100D7000782004F0DAF9204602F062FD1E235022AA
:100D8000FA21782004F0D1F9204602F059FD14230D
:100D90004122FA21782004F0C8F9204602F050FDE3
:100DA0004FF4FA6002F04CFD10BD10B56424FFF75B
:100DB000DCFB002003F0B1FE03F016FE6FF07F4075
:100DC00003F099FEAC4803F093FEACA20021084664
:100DD00004F021F8204602F033FDAE4803F088FE0F
:100DE000AFF280622021002004F015F8204602F0C6
:100DF00027FDA94803F07CFEAFF29862382100205D
:100E000004F009F8204602F01BFDA44803F070FE30
:100E1000AFF2B0624C21002003F0FDFF204602F04B
:100E20000FFD9F4803F064FEAFF2C8625C21002012
:100E300003F0F1FF204602F003FD9A4803F05BFE49
:100E4000974803F055FEAFF2E4626821002003F0FA
:100E5000E2FF204602F0F4FC904803F049FEAFF2B6
:100E6000FC627421002003F0D6FF204602F0E8FC6B
:100E7000894803F03DFEAFF214728421002003F094
:100E8000CAFF204602F0DCFC824803F031FEAFF2DC
:100E90002C729821002003F0BEFF204602F0D0FC07
:100EA000754803F025FE75A2B021002003F0B3FFC2
:100EB000204602F0C5FC4FF4FA6002F0C1FC0020AD
:100EC00003F02BFE03F090FD744803F011FEFF20A9
:100ED00003F011FE1023D22203216E2004F03EFA0B
:100EE000AFF238320321002003F095FF4FF47F402A
:100EF00003F001FE1023D22219216E2004F02EFAF5
:100F0000AFF24C321921002003F085FF4FF47F002F
:100F100003F0F1FD1023D2222F216E2004F01EFADF
:100F2000AFF260322F21002003F075FF4FF6FF7003
:100F300003F0E1FD1023D22245216E2004F00EFAC9
:100F4000AFF278324521002003F065FF4FF0FF102B
:100F500003F0D1FD1023D2225B216E2004F0FEF9B4
:100F6000AFF28C325B21002003F055FF4D488038F2
:100F700003F0C1FD1023D22271216E2004F0EEF99E
:100F8000AFF2A0327121002003F045FF464803F084
:100F9000B2FD1023D22287216E2004F0DFF9AFF2D8
:100FA000AC328721002003F036FF324803F0A3FD66
:100FB0001023D2229D216E2004F0D0F9AFF2BC3272
:100FC0009D21002003F027FF384803F094FD1023F3
:100FD000D222B3216E2004F0C1F9AFF2C832B3219E
:100FE000002003F018FF324803F085FD1023D222C1
:100FF000C9216E2004F0B2F9AFF2D832C921002025
:1010000003F009FF29487F3003F075FD1023D22239
:10101000DF216E2004F0A2F9AFF2EC32DF210020D4
:1010200003F0F9FE4FF4FA6002F00AFC002003F02E
:1010300074FD03F0D9FC4FF47F0003F05CFD5022F7
:101040007821104604F0AFF94FF47F4003F053FDD0
:1010500050227821A02004F0A6F9FF2003F04BFDD8
:1010600050227821F02004F09EF94FF4FA6002F04B
:10107000E7FB10BDFF8080004400002021232425D1
:10108000262728292A2B2C2D2E3031323334353681
:1010900000000000500000205C00002068000020DC
:1010A0007400002080FFFF002C2C2C0080FF8000AB
:1010B0008080FF00704700BFFEE700BFFEE700BF73
:1010C000FEE700BFFEE770477047704770470000BB
:1010D0000CB50020019000907648006840F4803004
:1010E0007449086000BF7348006800F40030009045
:1010F0000198401C0190009818B90198B0F5A04FD4
:10110000F1D16C48006800F4003010B1012000906B
:1011100001E0002000900098012846D16548403049
:10112000006840F0805063494031086062480068C0
:1011300040F44040604908605E48083000685D49FE
:10114000083108600846006840F40040086008461E
:10115000006840F4A05008605848091F0860081F44
:10116000006840F08070091F086000BF51480068A7
:1011700000F000700028F9D040F205705049086076
:101180004C480830006820F003004A4908310860E4
:101190000846006840F00200086000BF454808307B
:1011A000006800F00C000828F8D10CBD10B54548C7
:1011B000006840F47000434908603E48006840F011
:1011C00001003C49086000203A490831086039486C
:1011D00000683D490840374908603C48091D0860DF
:1011E000081F006820F48020091F08600020314992
:1011F0000C310860FFF76CFF4FF000603149803917
:10120000086010BD70B500200022022300240221D6
:10121000284D08352D6805F00C0020B1042806D0B3
:10122000082834D107E02A4D2A4E356033E02A4D94
:10123000284E35602FE01F4D2D1D2D68C5F38054BD
:101240001C4D2D1D2D6805F03F0154B1224DB5FBFD
:10125000F1F5184E361D3668C6F3881605FB06F202
:1012600009E01B4DB5FBF1F5124E361D3668C6F38D
:10127000881605FB06F20F4D2D1D2D68C5F301459F
:101280006D1C6B00B2FBF3F5124E356003E0104DA0
:10129000104E356000BF00BF064D08352D68C5F300
:1012A00003150E4E705D0B4D2D68C540094E35601F
:1012B00070BD000000380240007000400854400734
:1012C000003C024088ED00E0FFFFF6FE10300024F5
:1012D0000024F4000400002000127A00080000201E
:1012E0000948804709480047FEE7FEE7FEE7FEE7BA
:1012F000FEE7FEE7FEE7FEE7FEE7FEE704480549F6
:10130000054A064B70470000AD110008890100082E
:1013100050030020500900205005002050050020F7
:1013200032490143324A1160704770B500210023F1
:101330000F22C4781CB32E4C246804F4E064C4F576
:10134000E064C4F30721C1F10404E3B20A41447824
:101350009C40E1B28478144021430C07210E254CB7
:1013600005786155047804F01F050124AC40057828
:101370006D11AD0005F1E025C5F8004109E00478E4
:1013800004F01F050124AC401B4D0678761145F88A
:10139000264070BD194A0A400243154B1B1F1A60B4
:1013A000704739B1124A121D12680243104B1B1DBF
:1013B0001A6006E00E4A121D126882430C4B1B1D78
:1013C0001A607047042808D14FF0E021096941F004
:1013D00004014FF0E022116107E04FF0E0210969BC
:1013E00021F004014FF0E022116170470000FA057E
:1013F0000CED00E000E400E080E100E080FFFF1F72
:1014000030B943F2DB028100A1F1C0410A6005E07E
:1014100043F2D2028100A1F1C0410A606FF0704234
:10142000411C8900A1F1C0410A608100A1F1C041C5
:10143000C1F804217047D0E901121143C268114379
:10144000026911434269114382691143C269114320
:10145000026A1143426A1143826A1143C26A11430C
:10146000026B114302689200A2F1C04211608168D0
:1014700008290BD101688900A1F1C041096841F038
:10148000400201688900A1F1C0410A60416B09680E
:10149000426B526841EA0211426B926841EA0221B2
:1014A000426B928941EA0241426B128A41EA02513F
:1014B000426B127D41EA0261426B926911430268FC
:1014C000521C9200A2F1C0421160C16AB1F5804F76
:1014D0001BD1816B0968826B526841EA0211826BF1
:1014E000926841EA0221826B128A41EA0251826BC0
:1014F000127D41EA0261826B926911430268920097
:10150000A2F1C042C2F8041107E06FF07042016816
:101510008900A1F1C041C1F8042170470021016098
:101520000221416000218160C160016141618161EE
:10153000C16101624FF48051416249008162002122
:10154000C1620163F84941638163704751B1820010
:10155000A2F1C042126842F001038200A2F1C0422F
:10156000136009E08200A2F1C0421268EF4B1A40FA
:101570008300A3F1C0431A60704710280AD11821D4
:101580004FF020421166402151664FF0FC319166C8
:10159000D16610E01821E64A116040214FF0204248
:1015A000C2F884104FF0FC31E14A083211604FF06C
:1015B0002042C2F88C10704730B500210022002371
:1015C000446844F0080485682C43C5682C430569C9
:1015D0002C43456944EA4524856944EA4531C46998
:1015E0002468C5696D6844EA0524C5692D8944EA03
:1015F0000544C5692D7B44EA0562046A2468056ACE
:101600006D6844EA0524056A2D8944EA0544056AA3
:101610002D7B44EA05630468102C05D14FF020446B
:101620002166A266E36608E0C14C21604FF02044C9
:10163000C4F88820BE4C0C34236030BD10210160FA
:10164000002141608160C160016141618161FC21D3
:10165000C2691160C2695160C2699160C269D1609A
:10166000026A1160026A5160026A9160026AD16086
:10167000704799B1102808D14FF02042126E42F005
:1016800004024FF020431A661DE0A94A126842F096
:1016900004024FF02043C3F8802014E0102809D141
:1016A0004FF02042126EA14BDB1E1A404FF0204338
:1016B0001A6608E09E4A12689C4BDB1E1A404FF0E7
:1016C0002043C3F88020704799B1102808D14FF00B
:1016D0002042126E42F040024FF020431A661DE095
:1016E000934A126842F040024FF02043C3F8802032
:1016F00014E0102809D14FF02042126E8B4B3F3B73
:101700001A404FF020431A6608E0894A1268874B56
:101710003F3B1A404FF02043C3F8802070470146FA
:101720000020102903D14FF02042506F02E0804A80
:1017300014321068704718207D492031086000205D
:101740000906C1F8A4004FF0FC307949283108603F
:10175000091D0860091D08607047016841F010010B
:10176000426841EA4221826841EA4231704A2032AD
:101770001160C1680968C268526841EA0221C26802
:10178000128941EA0241C268127B41EA0261684A59
:1017900028321160016909680269526841EA022130
:1017A0000269128941EA02410269127B41EA02613F
:1017B0005F4A2C321160416909684269526841EA06
:1017C00002214269128941EA02414269127B41EADF
:1017D00002614FF02042C2F8B01070470021016052
:1017E00041608160FC21C2681160C2685160C268BA
:1017F0009160C268D160026911600269516002693A
:1018000091600269D1604269116042695160426928
:1018100091604269D160704748B1454920310968FB
:1018200041F004014FF02042C2F8A01009E0404905
:10183000203109683D4AD21E11404FF02042C2F8C3
:10184000A010704710B5F2B1102807D14FF0204317
:101850005B6E0B434FF02044636632E0B0F5807F4F
:1018600008D1334B1B1D1B680B434FF02044C4F8B9
:10187000843026E02E4B24331B680B434FF020446A
:10188000C4F8A4301DE0102807D14FF020435B6E50
:101890008B434FF02044636613E0B0F5807F08D19E
:1018A000234B1B1D1B688B434FF02044C4F884302E
:1018B00007E01F4B24331B688B434FF02044C4F8D0
:1018C000A43010BD10B5024600200023102A03D119
:1018D0004FF02044636E09E0B2F5807F03D1144CD1
:1018E000241D236802E0124C2434236803EA010417
:1018F0000CB1012000E0002010BD102807D14FF0EE
:101900002042526E8A434FF020435A6619E0B0F5E8
:10191000807F0FD1064A121D12688A434FF0204380
:10192000C3F884200DE0000080580008FEFF0F007F
:10193000800000A0234A12688A434FF02043C3F876
:10194000A420704770B50246002000230024002523
:10195000102A03D14FF02046736E08E0B2F5807F65
:1019600003D1184E203E336801E0164E336803EA77
:10197000010403EAD10514B10DB1012000E00020FB
:1019800070BD102808D14FF02042526E22EAD102D9
:101990004FF020435A6614E0B0F5807F09D1094A20
:1019A000203A126822EAD1024FF02043C3F8842083
:1019B00007E0044A126822EAD1024FF02043C3F83C
:1019C000A4207047A40000A010B5044698488442A3
:1019D00008D10121084600F086FB0021012000F01B
:1019E00082FB76E09348844208D10121022000F076
:1019F0007AFB0021022000F076FB6AE08E488442E8
:101A000008D10121042000F06EFB0021042000F029
:101A10006AFB5EE08948844208D10121082000F079
:101A200062FB0021082000F05EFB52E08448844203
:101A300008D10121102000F056FB0021102000F0F9
:101A400052FB46E07F48844208D10121202000F06B
:101A50004AFB0021202000F046FB3AE07A4884420D
:101A600008D10121402000F03EFB0021402000F081
:101A70003AFB2EE07548844208D10121802000F015
:101A800032FB0021802000F02EFB22E070488442CF
:101A900008D10121801500F026FB0021A01500F0DF
:101AA00022FB16E06B48844208D10121401500F06A
:101AB0001AFB0021601500F016FB0AE0664884421C
:101AC00007D10121001500F00EFB0021201500F0C8
:101AD0000AFB10BDF0B50A4600210023002400BF18
:101AE0003DE0012505FA01F3156805EA03049C426F
:101AF00034D105684F000326BE40B5430560157913
:101B00004E00B5400668354305601579012D02D0B9
:101B10001579022D16D185684F000326BE40B543C6
:101B2000856055794E00B5408668354385604568C7
:101B300001268E40B5434560456896798E40B6B221
:101B400035434560C5684F000326BE40B543C560B8
:101B5000D5794E00B540C6683543C560491C10298B
:101B6000BFD3F0BD4FF6FF710160002101714171DB
:101B70008171C171704708B54FF480320092009AAC
:101B80000A430092009AC261C161009AC261C269AF
:101B90000092C269009208BD0246002013690B4002
:101BA0000BB1012000E0002070470146086980B2B7
:101BB00070470246002053690B400BB1012000E042
:101BC000002070470146486980B270470183704722
:101BD000418370470AB1018300E04183704741614E
:101BE000704742694A4042617047F0B500230024C3
:101BF0004D07ED0E02FA05F3CE1000F1200555F861
:101C000026504E07F70E0F26BE40B543CF1000F109
:101C1000200646F82750CE1000F1200555F8265032
:101C200045EA0304CE1000F1200545F82640F0BD3A
:101C3000000002400004024000080240000C024084
:101C4000001002400014024000180240001C024034
:101C5000002002400024024000280240F9480068A9
:101C600040F00100F74908600020F649083108609B
:101C7000F4480068F4490840F2490860F348091D37
:101C80000860F348EF4984310860F0481038091DB6
:101C90000860EC48006820F48020EA4908600020D1
:101CA000E8490C310860E7498C3108607047002131
:101CB000E44A921C117011460870704710B5014635
:101CC0000022002300204A11012A02D1DD4C2368A2
:101CD00008E0022A03D1DB4C7034236802E0D94CBF
:101CE0007434236801F01F02012494401C400CB19D
:101CF000012000E0002010BD38B500200090002435
:101D0000002500BF3120FFF7D9FF05460098401C91
:101D100000900098B0F5A04F01D0002DF2D03120F6
:101D2000FFF7CCFF08B1012400E00024204638BDB5
:101D300001460020C34A106820F0F80040EAC100C4
:101D400010607047C349086070470021BD4A703277
:101D500011701170012802D004280AD104E0012179
:101D6000B84A7032117005E00521B64A7032117020
:101D700000E000BF00BF7047B7490860704770B50A
:101D8000049C41EA82150126C6EB530645EA064546
:101D9000054345EA0465AB4E361D356070BDAD495F
:101DA00008667047820142EA0172A64B84331A60CA
:101DB0007047A8498866704710B5830143EA0163FC
:101DC00043EA02739F4C8834236010BDA149086721
:101DD0007047A049C864704702460020994B0833F9
:101DE000186820F0EC6042EA01031843954B083371
:101DF0001860704702460020924B0833186820F0A4
:101E0000784042EA010318438E4B0833186070474C
:101E1000014600208B4A0832106820F00300084376
:101E20001060704787480830006800F00C00704769
:101E300001460020834A0832106820F0F000084371
:101E400010607047014600207E4A0832106820F476
:101E5000E05008431060704701460020794A08327C
:101E6000106820F4604040EAC10010607047F0B58F
:101E7000002100220024022500260223714F08378A
:101E80003F6807F00C0121B1042905D0082937D19A
:101E900005E0724F076036E0714F076033E0694F2D
:101EA0003F1D3F68C7F38056664F3F1D3F6807F0F0
:101EB0003F036EB16A4FB7FBF3F7DFF888C10CF14F
:101EC000040CDCF800C0CCF3881C07FB0CF40CE01D
:101ED000624FB7FBF3F7DFF86CC10CF1040CDCF8D0
:101EE00000C0CCF3881C07FB0CF4564F3F1D3F6825
:101EF000C7F301477F1C7D00B4FBF5F7076002E0E4
:101F0000564F076000BF00BF4E4F08373F6807F0CD
:101F1000F0010909534F7A5C0768D7404760494F81
:101F200008373F6807F4E051890A4E4F7A5C4768EA
:101F3000D7408760434F08373F6807F46041490B3B
:101F4000484F7A5C4768D740C760F0BD002100F475
:101F50004072B2F5407F0AD13A4A0832116821F442
:101F6000F811414A02401143364A08321160354A9D
:101F700070321268C0F30B031A43324B70331A608D
:101F80007047354944390860704733494039086023
:101F9000704736490860704701460020294A8C3254
:101FA000106820F01F004A1E1043264A8C32106031
:101FB000704701460020234A8C32106820F4F85004
:101FC0004A1E40EA02201F4A8C32106070470146C8
:101FD00000201C4A8C32106820F440100843106026
:101FE000704701460020174A8C32106820F44000E8
:101FF00008431060704701460020124A8C32106876
:1020000020F4403008431060704719490860704759
:1020100039B10C4A3032126802430A4B30331A602D
:1020200006E0084A303212688243064B30331A60A9
:102030007047F9B1034A343212680243014B34331A
:102040001A601CE000380240FFFFF6EA103000245E
:102050000030002000004742800E47420024F40078
:1020600000127A0018000020FFFCFF0F5C014742BD
:10207000E01147428F4A126882438E4B1A607047C4
:1020800039B18C4A121D126802438A4B1B1D1A601B
:1020900006E0884A121D12688243864B1B1D1A6097
:1020A000704739B1834A0C3212680243814B0C33BA
:1020B0001A6006E07F4A0C32126882437D4B0C3373
:1020C0001A60704739B17B4A103212680243794B6B
:1020D00010331A6006E0774A103212688243754B5B
:1020E00010331A60704739B1724A243A12680243B9
:1020F000704B243B1A6006E06E4A243A1268824311
:102100006C4B243B1A60704739B16A4A203A126816
:102110000243684B203B1A6006E0664A203A126888
:102120008243644B203B1A60704739B1614A1C3AC4
:10213000126802435F4B1C3B1A6006E05D4A1C3A82
:10214000126882435B4B1C3B1A60704739B1594A95
:10215000143A12680243574B143B1A6006E0554A82
:10216000143A12688243534B143B1A60704739B1DA
:10217000504A103A126802434E4B103B1A6006E078
:102180004C4A103A126882434A4B103B1A6070471F
:1021900039B1484A1C3212680243464B1C331A605C
:1021A00006E0444A1C3212688243424B1C331A60D8
:1021B000704739B13F4A2032126802433D4B203309
:1021C0001A6006E03B4A203212688243394B2033C2
:1021D0001A60704739B1374A243212680243354BCE
:1021E00024331A6006E0334A243212688243314BAA
:1021F00024331A60704739B12E4A2C3212680243D8
:102200002C4B2C331A6006E02A4A2C321268824387
:10221000284B2C331A60704739B1264A3032126885
:102220000243244B30331A6006E0224A30321268EF
:102230008243204B30331A607047012808D11D4972
:102240003C31096841F008011A4A3C32116007E04C
:1022500018493C31096821F00801164A3C321160E6
:10226000704739B1134A273A12780243114B273B82
:102270001A7006E00F4A273A127882430D4B273B2B
:102280001A7070470B484030006840F08070094970
:1022900040310860704701460020064A283A12681B
:1022A0000A400AB1012000E00020704701492639A8
:1022B000087070473438024010B50446FE48844226
:1022C00008D101210846FFF752FF00210120FFF746
:1022D0004EFF9DE0B4F1804F08D101210846FFF781
:1022E00035FF00210120FFF731FF91E0F3488442E0
:1022F00008D101210220FFF729FF00210220FFF76A
:1023000025FF85E0EE48844208D101210420FFF733
:102310001DFF00210420FFF719FF79E0E9488442FE
:1023200008D101210820FFF711FF00210820FFF745
:102330000DFF6DE0E448844208D101211020FFF731
:1023400005FF00211020FFF701FF61E0DF48844214
:1023500008D101212020FFF7F9FE00212020FFF7FE
:10236000F5FE55E0DA48844208D101210220FFF74A
:10237000FEFE00210220FFF7FAFE49E0D548844224
:1023800009D101210804FFF7F2FE00214FF480304B
:10239000FFF7EDFE3CE0D048844209D1012148041A
:1023A000FFF7E5FE00214FF40030FFF7E0FE2FE0DD
:1023B000CA48844209D101218804FFF7D8FE0021D0
:1023C0004FF48020FFF7D3FE22E0C548844208D1B5
:1023D00001214020FFF7BAFE00214020FFF7B6FEA2
:1023E00016E0C048844208D101218020FFF7AEFEEC
:1023F00000218020FFF7AAFE0AE0BB48844207D1F3
:1024000001218015FFF7A2FE0021A015FFF79EFE17
:1024100010BD00220288A84B98420ED0AC4B9842C7
:102420000BD0B0F1804F08D0A44B984205D0A44BFC
:10243000984202D0A34B984204D14FF68F731A40B2
:102440004B881A43A04B984207D0A04B984204D027
:102450004FF6FF431A400B891A4302804B68C36250
:102460000B880385944B984202D0994B984201D136
:102470008B7A03860123838270474FF0FF314160DE
:102480000021018001814180817270470185828233
:1024900070470A46002101884FF68F731940114397
:1024A0000180704741627047C16270470146486AC7
:1024B00070470146088D704721B1028842F0020240
:1024C000028004E002884FF6FD731A4002807047D4
:1024D00021B1028842F00402028004E002884FF633
:1024E000FB731A400280704721B1028842F08002DB
:1024F000028004E002884FF67F731A400280704722
:1025000002884FF6F7731A40028002880A4302805D
:10251000704702884FF6FF431A40028002880A4340
:102520000280704721B1028842F00102028004E07B
:1025300002884FF6FE731A400280704770B500247F
:1025400000220023058C4FF6FE7635400584028C70
:102550008388048B4FF68F752C40B51E2C400D8858
:102560002C43751E2A408D892A434D882A43524D9B
:10257000A84202D0564DA84213D14FF6F7752A4013
:10258000CD892A434FF6FB752A408D882A434FF6A2
:10259000FF652B404FF6FF552B400D8A2B434D8A8C
:1025A0002B43838004838D684563028470BD70B5BE
:1025B000002400220023058C4FF6EF763540058479
:1025C000028C8388048B48F6FF752C404FF6FF453C
:1025D0002C400D884FF6FF7606EA05252C434FF672
:1025E000DF752A408D8906EA05152A434D8806EADB
:1025F00005152A43304DA84202D0354DA8421DD1C1
:102600004FF67F752A40CD894FF6FF7606EA05150D
:102610002A434FF6BF752A408D8806EA05152A43DE
:102620004FF6FF352B404FF2FF752B400D8A06EA1F
:1026300085052B434D8A06EA85052B438380048359
:102640008D688563028470BD70B50024002200236C
:10265000058C4FF6FF6635400584028C8388848B99
:102660004FF68F752C404FF6FC752C400D882C438F
:102670004FF6FF552A408D894FF6FF7606EA05256D
:102680002A434D8806EA05252A430B4DA84202D06D
:102690000F4DA84238D14FF2FF752A40CD894FF631
:1026A000FF7606EA05252A434FF6FF352A408D8836
:1026B00006EA05252A4319E0000001400004004015
:1026C00000080040000C00400010004000140040D2
:1026D0000004014000400140004401400048014026
:1026E00000180040001C0040002000404EF6FF751E
:1026F0002B404DF6FF752B400D8A06EA05152B433E
:102700004D8A06EA05152B43838084838D68C56353
:10271000028470BD70B5002200230024058C4EF6A3
:10272000FF7635400584038C8488828B48F6FF75DC
:102730002A404FF6FF452A400D884FF6FF7606EAFD
:1027400005252A434DF6FF752B408D8906EA053590
:102750002B434D8806EA05352B43FE4DA84202D097
:10276000FD4DA84208D14BF6FF752C400D8A4FF65F
:10277000FF7606EA85152C43848082838D68056484
:10278000038470BD0021018041808180816081814E
:10279000C18101824182704770B503460020002448
:1027A0001846183001258D40ACB21D8CA5431D8400
:1027B00009B108290AD100EB610005684FF68F7650
:1027C000354005600568154305600FE00D1FC5F332
:1027D0004E052844056848F6FF76354005600568D3
:1027E0004FF6FF7606EA02263543056070BD416369
:1027F000704781637047C1637047016470470A4640
:102800000021018B4FF68F731940114301837047EC
:102810000A460021018B48F6FF7319404FF6FF73FB
:1028200003EA02231943018370470A460021818B82
:102830004FF68F7319401143818370470A46002178
:10284000818B48F6FF7319404FF6FF7303EA0223AA
:102850001943818370470A460021018B4FF6F773B5
:1028600019401143018370470A460021018B4FF242
:10287000FF7319404FF6FF7303EA022319430183E4
:1028800070470A460021818B4FF6F77319401143B8
:10289000818370470A460021818B4FF2FF731940F4
:1028A0004FF6FF7303EA02231943818370470A46F8
:1028B0000021018B4FF6FB731940114301837047D0
:1028C0000A460021018B4FF6FF3319404FF6FF7384
:1028D00003EA02231943018370470A460021818BD2
:1028E0004FF6FB7319401143818370470A4600215C
:1028F000818B4FF6FF3319404FF6FF7303EA022333
:102900001943818370470A460021018B4FF67F737C
:1029100019401143018370470A460021018BC1F31E
:102920000E014FF6FF7303EA022319430183704738
:102930000A460021818B4FF67F7319401143818332
:1029400070470A460021818BC1F30E014FF6FF73D9
:1029500003EA02231943818370470A460021018C50
:102960004FF6FD7319401143018470470A46002158
:10297000018C4FF6F77319401143018470470A46E2
:102980000021018C4FF6DF7319404FF6FF7303EA05
:1029900002131943018470470A460021018C4FF647
:1029A0007F7319404FF6FF7303EA02131943018442
:1029B00070470A460021018C4FF6FF5319404FF62D
:1029C000FF7303EA02231943018470470A4600217A
:1029D000018C4FF2FF7319404FF6FF7303EA022395
:1029E0001943018470470A460021018C4DF6FF739C
:1029F00019404FF6FF7303EA02331943018470470D
:102A000030B5002301248C40A3B2048C9C43048481
:102A1000048C02FA01F5ADB22C43048430BD30B50C
:102A2000002304248C40A3B2048C9C430484048CB3
:102A300002FA01F5ADB22C43048430BD828B4FF213
:102A4000FF331A408283828B4FF6FF7303EA012320
:102A50001A4382837047F0B50C46154600210022C8
:102A60000026078C4EF6FF7C07EA0C070784818B53
:102A7000028C4FF6FF7707EA043640F6FF473940ED
:102A80004FF6FF7707EA052739434FF6FF7707EA46
:102A90000337394345F6FF773A4046F480573A43C7
:102AA00081830284F0BD828B4FF6F3731A408283D8
:102AB000828B0A4382837047F0B50C46154600218D
:102AC00000220026078C4FF6FF6C07EA0C070784EC
:102AD000818B028C4FF6FF7707EA04264FF60C77BE
:102AE00039404FF6FF7707EA03172F4339434FF278
:102AF000FF573A4046F480773A4381830284F0BD21
:102B0000028B4FF2FF331A400283028B4FF6FF73A2
:102B100003EA01231A4302837047F0B50C461546B9
:102B2000002100220026078C4FF6EF7C07EA0C07F5
:102B30000784018B028C4FF6FF7707EA041640F6F4
:102B4000FF4739404FF6FF7707EA033739434FF61F
:102B5000FF7703E0000001400004014007EA052779
:102B600039434FF65F773A4046F010073A43018306
:102B70000284F0BD028B4FF6F3731A400283028B7E
:102B80000A4302837047F0B50C4615460021002227
:102B9000068C4FF6FE773E400684018B028C4FF682
:102BA0000C7631407E1C06EA03162E4331434FF665
:102BB000F576324044F00106324301830284F0BDD1
:102BC00070B505460C46208850B92389A2886188D3
:102BD0002846FFF7D8FFE1882846FFF7CBFF25E01E
:102BE000208804280AD12389A28861882846FFF713
:102BF00094FFE1882846FFF783FF17E02088082824
:102C00000AD12389A28861882846FFF755FFE18809
:102C10002846FFF748FF09E02389A28861882846F3
:102C2000FFF719FFE1882846FFF708FF70BD002174
:102C300001804180012181800021C1800181704794
:102C40002DE9F04105460C4600260127608808B9A9
:102C5000022600E00026A088012801D1022700E01A
:102C600001272088A0B92389A28861882846FFF718
:102C70008AFFE1882846FFF77DFF23893A463146DF
:102C80002846FFF74AFFE1882846FFF739FF13E09F
:102C90002389A28861882846FFF73FFFE1882846FC
:102CA000FFF72EFF23893A4631462846FFF76BFF90
:102CB000E1882846FFF75EFFBDE8F0810146486BDA
:102CC00070470146886B70470146C86B70470146E4
:102CD000086C70470A884B881A438B881A43CB8844
:102CE0001A430B891A434B891A438B891A43A0F85C
:102CF000442070470021018041808180C180018192
:102D000041818181704731B1B0F8442042F40042E2
:102D1000A0F8442005E0B0F84420C2F30E02A0F869
:102D20004420704721B1828842F00402828004E08E
:102D300082884FF6FB731A408280704721B18288E7
:102D400042F00102828004E082884FF6FE731A404E
:102D5000828070471AB183890B43838102E08389A3
:102D60008B43838170478182704702460020138A1B
:102D70000B400BB1012000E000207047CA430282E3
:102D8000704730B50246002000230024158A05EA6A
:102D90000103958905EA010413B10CB1012000E09B
:102DA000002030BDCA430282704741EA0203A0F806
:102DB000483070471AB183890B43838102E08389CD
:102DC0008B438381704721B1828842F00802828060
:102DD00004E082884FF6F7731A40828070470189B9
:102DE0004FF6F8721140018170470A4600210189AF
:102DF0004FF68F73194011430181704730B5044677
:102E00000D4629462046FFF7F0FF208940F00700D5
:102E1000208130BD2DE9F04104460D4616461F467F
:102E2000602D06D13B46012231462046FFF775FE54
:102E300005E03B46012231462046FFF7A4FE294625
:102E40002046FFF7D2FF208940F007002081BDE82F
:102E5000F08130B50C4600210189C9B24FF6FF75EB
:102E600005EA0325154325432943018130BD2DE99A
:102E7000F04105460E4617469846002443463A461A
:102E800031462846FFF7E5FF2C894FF6F8700440DD
:102E900044F007044FF68F70044044F070042C8116
:102EA000BDE8F081F0B504460D4616461F463B4688
:102EB000324629462046FFF7CCFF208940F4804067
:102EC0002081F0BD82884FF68F731A4082808288FD
:102ED0000A438280704702894FF6F8731A400281D4
:102EE00002890A430281704702894FF67F731A40B4
:102EF000028102890A4302817047F0B50C461546EB
:102F00001E460021002200230189028B038C4FF60C
:102F1000F877394021434FF6FC473A4040F2011719
:102F20003A434FF6DD773B404FF6FF7707EA061747
:102F30002F433B43018102830384F0BD21B182888A
:102F400042F08002828004E082884FF67F731A404C
:102F500082807047A0F850107047000010B50446FA
:102F6000FA48844208D101211020FFF700F900211E
:102F70001020FFF7FCF857E0F548844209D1012101
:102F80004804FFF7E3F800214FF40030FFF7DEF8C4
:102F90004AE0F048844209D101218804FFF7D6F8BD
:102FA00000214FF48020FFF7D1F83DE0EA48844249
:102FB00009D10121C804FFF7C9F800214FF400200E
:102FC000FFF7C4F830E0E548844209D10121080543
:102FD000FFF7BCF800214FF48010FFF7B7F823E0AB
:102FE000DF48844208D101212020FFF7C0F80021EA
:102FF0002020FFF7BCF817E0DA48844209D101210C
:103000008807FFF7A3F800214FF08040FFF79EF8F4
:103010000AE0D548844207D101214005FFF796F820
:1030200000216005FFF792F810BD2DE9FF47054626
:103030000E460024A14600BFA046B08900B100BFE3
:103040002C8A24F44054F08804432C82AC8941F249
:103050000C608443B0883189084371890843044374
:10306000AC81AC8A24F44074B0890443AC826846D5
:10307000FEF7FDFEB548854202D0B948854202D12F
:10308000DDF80C9001E0DDF80890A88900F400401C
:1030900040B109EBC90000EB091031684900B0FBF1
:1030A000F1F707E009EBC90000EB0910316889006E
:1030B000B0FBF1F76420B7FBF0F0040120096421B4
:1030C00001FB1078A88900F4004040B1322000EBE9
:1030D000C800B0FBF1F000F00700044308E0322024
:1030E00000EB08106421B0FBF1F000F00F00044386
:1030F0002C81BDE8FF874FF41651016000218180CB
:10310000C18001810C21418100218181704710B56E
:1031100002460020108A20F470600B884C882343FC
:103120008C882343CC8823431843108210BD002190
:10313000018041808180C180704721B1828942F441
:103140000052828104E082894DF6FF731A40828129
:103150007047028B02F47F420283028B0A43028390
:10316000704721B1828942F40042828103E0828962
:10317000C2F30E028281704721B1828A42F400625A
:10318000828204E0828A4FF2FF731A408282704783
:10319000C1F308028280704701468888C0F30800A6
:1031A0007047028A4FF6F0731A400282028A0A437D
:1031B0000282704721B1828942F00202828104E0DA
:1031C00082894FF6FD731A408281704782894FF2DF
:1031D000FF731A40828182890A4382817047028A82
:1031E0004FF6DF731A400282028A0A430282704756
:1031F00021B1028A42F48042028204E0028A4BF644
:10320000FF731A4002827047818941F00101818178
:10321000704721B1828A42F00802828204E0828AE9
:103220004FF6F7731A4082827047028BD2B2028344
:10323000028B42EA01220283704721B1828A42F066
:103240002002828204E0828A4FF6DF731A40828273
:10325000704721B1828A42F01002828204E0828AA1
:103260004FF6EF731A4082827047828A4FF6FB73E3
:103270001A408282828A0A438282704721B1828AFE
:1032800042F00202828204E0828A4FF6FD731A4005
:10329000828270471AB1838A0B43838202E0838A59
:1032A0008B4383827047F0B5034600240026002537
:1032B000002040F66A17B94200D100BF1846C1F39A
:1032C000421401F01F06012707FA06F5012C01D16F
:1032D0000C3004E0022C01D1103000E014301AB19F
:1032E00007682F43076002E00768AF430760F0BD3F
:1032F00002460020B1F5007F00D100BF13880B40CB
:103300000BB1012000E00020704701F40072B2F51B
:10331000007F00D100BFCA430280704770B50246EB
:10332000002400230025002040F66A16B14200D197
:1033300000BFC1F3421501F01F03012606FA03F393
:10334000012D13D19689334017E000000010014091
:103350000044004000480040004C00400050004045
:103360000014014000780040007C0040022D02D192
:10337000168A334001E0968A33400C12012606FA81
:1033800004F41688344013B10CB1012000E0002091
:1033900070BD10B50022002340F66A14A14200D18E
:1033A00000BF0A1201249440A3B2DC43048010BD84
:1033B00000BF704700BFE44A128802F04002002AB2
:1033C000F9D0C2B2E04B9A80704710B588B004467D
:1033D00001210846FEF71CFE01211020FEF772FEB7
:1033E00007220921D948FEF700FC07220A21D74805
:1033F000FEF7FBFB4FF4C060069002208DF81C0026
:103400008DF81D0000208DF81E0001208DF81F0092
:1034100006A9CE48FEF75EFB02940020ADF80C0032
:10342000ADF80E00ADF81000ADF814000C20ADF8AA
:10343000120002A9C448FFF7F8FD0121C248FFF7B6
:103440007CFE012240F22551BF48FFF72CFF2520CA
:103450008DF8040003208DF805008DF8060001208A
:103460008DF8070001A8FDF760FF08B010BD10B58A
:1034700040F22551B448FFF751FF10B3B248FFF7AF
:103480008BFEC4B2B248008800F40040C8B9B0480E
:10349000008800F4804060B10A2C03D00020AC49C1
:1034A000088020E0AA48008840F40040A84908802D
:1034B00019E00D2C06D1A648008840F48040A449AC
:1034C000088010E0A2480088C0F30D00A1490C5408
:1034D0009F480088401C9E49088008460088C728ED
:1034E00001DD0020088010BD10B540F225519A483A
:1034F000FFF714FF10B39848FFF74EFEC4B2974889
:10350000008800F40040C8B99448008800F4804066
:1035100060B10A2C03D000209049088020E08F4839
:10352000008840F400408D49088019E00D2C06D138
:103530008A48008840F480408849088010E0874825
:103540000088C0F30D0086490C5484480088401C54
:103550008249088008460088C72801DD00200880CD
:1035600010BD10B588B0044601210220FEF750FDC1
:1035700001218804FEF795FD07220A217948FEF70C
:1035800034FB07220B217748FEF72FFB4FF44060F6
:10359000019002208DF808008DF8090000208DF8B8
:1035A0000A0001208DF80B0001A96E48FEF792FA7F
:1035B00004940020ADF81400ADF81600ADF8180022
:1035C000ADF81C000C20ADF81A0004A96248FFF702
:1035D0002CFD01216048FFF7B0FD012240F225518A
:1035E0005D48FFF760FE27208DF80C0003208DF862
:1035F0000D008DF80E0001208DF80F0003A8FDF7D7
:1036000094FE08B010BD10B588B0044601210C200E
:10361000FEF7FEFC01210805FEF743FD082202210A
:103620005148FEF7E2FA08220C215048FEF7DDFA75
:103630004FF48050069002208DF81C008DF81D007C
:1036400000208DF81E0001208DF81F0006A94748B4
:10365000FEF740FA0420069002208DF81C008DF839
:103660001D0000208DF81E0001208DF81F0006A906
:103670003D48FEF72FFA02940020ADF80C00ADF89B
:103680000E00ADF81000ADF814000C20ADF81200DB
:1036900002A93748FFF7C9FC01213548FFF74DFD66
:1036A000012240F225513248FFF7FDFD35208DF80B
:1036B000040003208DF8050001208DF806008DF828
:1036C000070001A8FDF731FE08B010BD10B540F2AB
:1036D00025512748FFF722FE10B32548FFF75CFD70
:1036E000C4B22448008800F40040C8B921480088CA
:1036F00000F4804060B10A2C03D000201D490880EE
:1037000020E01C48008840F400401A49088019E075
:103710000D2C06D11748008840F4804015490880D8
:1037200010E014480088C0F30D0013490C541148F0
:103730000088401C0F49088008460088C72801DD22
:103740000020088010BD0000001001400000024071
:103750002C00002080000020004800402E000020A7
:103760004801002000040240000C02400008024012
:1037700000500040300000201002002010B5044628
:103780006FF00400FDF71EFEE11704EB5171C1F369
:10379000C701394A11701046007800EB4001C1EBB7
:1037A000C0104FF6FF7101EAC0003449088010BD17
:1037B0000146314A12784A434FF0E0235A61002211
:1037C0009A611A46126942F001021A6100BF4FF075
:1037D000E022106900F001021AB100F48032002AE0
:1037E000F5D04FF0E022126922F001024FF0E02301
:1037F0001A6100229A6170470146204A12884A43A2
:103800004FF0E0235A6100229A611A46126942F091
:1038100001021A6100BF4FF0E022106900F00102BE
:103820001AB100F48032002AF5D04FF0E02212697C
:1038300022F001024FF0E0231A6100229A617047E2
:1038400070B504464FF4077094FBF0F0C6B24FF425
:10385000077094FBF0F100FB114085B205E04FF4D6
:103860000770FFF7C9FF701EC6B2002EF7D115B161
:103870002846FFF7C1FF70BD320000203400002051
:1038800030B58BB004460D4601210846FEF7C0FB5B
:1038900002220321B248FEF7A8F90820099002206D
:1038A0008DF8280003208DF8290000208DF82A00CB
:1038B0008DF82B0009A9AA48FEF70CF90121082070
:1038C000FEF7EFFBA8B2ADF818000020ADF81A0023
:1038D0000794ADF8200006A9A248FEF79AFD6020E3
:1038E000ADF804000120ADF806000020ADF810008E
:1038F000039001A99B48FEF70DFF08219948FEF7A8
:10390000C9FF01219748FEF7EFFD01219548FEF719
:1039100009FE0BB030BD30B58BB004460D46012119
:103920000220FEF7CFFB01210420FEF771FB0322EA
:1039300009218D48FEF759F9032208218A48FEF72C
:1039400054F94FF44070099002208DF828000320AC
:103950008DF8290000208DF82A0001208DF82B0019
:1039600009A98148FEF7B6F8A8B2ADF81800002002
:10397000ADF81A000794ADF8200006A97B48FEF7C1
:1039800048FD6020ADF804000120ADF806000020DD
:10399000ADF81000ADF81400039001A97348FEF7CC
:1039A000B9FE01A97148FEF74FFE08216F48FEF7E6
:1039B00071FF01A96D48FEF747FE01216B48FEF734
:1039C00093FD01216948FEF7ADFD01216748FFF72E
:1039D0009AF90BB030BD30B58BB004460D460121CD
:1039E0008020FEF75EFB01210846FEF711FB09224D
:1039F00006215B48FEF7F9F84020099002208DF877
:103A0000280003208DF8290000208DF82A000120CD
:103A10008DF82B0009A95248FEF75CF8A8B2ADF862
:103A200018000020ADF81A000794ADF8200006A990
:103A30004F48FEF7EEFC6020ADF804000120ADF821
:103A400006000020ADF8100001A94948FEF776FDF8
:103A500008214748FEF7FFFE01214548FEF744FDD7
:103A600001214348FEF75EFD0BB030BD10B540F2BA
:103A7000473140F2E730FFF703FF40F28F6140F239
:103A8000E730FFF748FF40F2473140F2E730FFF7F9
:103A9000A2FF10BD10B504464FF496703349403173
:103AA000086040F2A710FFF7CBFE96202F49403167
:103AB00008602046FFF7C4FE0A202C494031086008
:103AC0004FF4B470FFF7BCFE002028494031086075
:103AD00010BDE620234940310860704796202149F7
:103AE00040310860704710B5002415E0502020498F
:103AF000343108604FF42F70FFF7A2FEFA201C4902
:103B0000343108604FF42F70FFF79AFE00201849F7
:103B100034310860601CC4B2042CE7DB0020144977
:103B20003431086010BD10B5C82010493C31086020
:103B30004FF4FA70FFF784FE00200C493C31086016
:103B400010BD10B5322009493C3108604FF4FA70BD
:103B5000FFF776FE002005493C31086010BD0000EB
:103B600000000240000C0040000802400004014038
:103B7000001C00401CB501211B20FEF7A3FA012107
:103B80000320FEF78EFA01220021E548FEF72DF80A
:103B900001221146E248FEF728F803200090022097
:103BA0008DF804008DF8050000208DF80600012036
:103BB0008DF807006946DA48FDF78CFF4FF4C050D6
:103BC000009001208DF8040003208DF805000020EE
:103BD0008DF8060001208DF807006946D048FDF7F2
:103BE00079FF402000906946CD48FDF773FF08201B
:103BF00000906946CB48FDF76DFF042000906946B0
:103C0000C948FDF767FF4FF4005000906946C5486A
:103C1000FDF760FF3020009001208DF804000020A7
:103C20008DF8060003208DF8050001208DF80700AF
:103C30006946BB48FDF74EFF1CBD30B589B0044650
:103C400000214FF08040FEF76DFCB848B0FBF4F067
:103C500085B2681E079040F2E730ADF818000020EA
:103C6000ADF82000ADF81A008DF8220006A94FF03B
:103C70008040FEF7CEFB6020ADF804000220ADF8D6
:103C800010000120ADF806006810039001A94FF064
:103C90008040FEF753FC0821C806FEF7DCFD01A9B1
:103CA0004FF08040FEF783FC0821C806FEF7DCFDDC
:103CB00001218807FEF718FC4FF6FF7007900020DF
:103CC000ADF81800ADF82000ADF81A008DF822000C
:103CD00006A99748FEF79DFB2020ADF804000020C0
:103CE000ADF810000120ADF806004FF6FF7003900C
:103CF00001A98F48FEF722FC8021C805FFF7F4F8E0
:103D000020214806FFF7DEF805218948FFF7E3F890
:103D100010218748FFF769F810218548FFF76EF8F2
:103D200000214FF08040FEF7FDFB00218048FEF7A8
:103D3000F9FB09B030BD70B5054600214FF0804059
:103D4000FEF7F0FB7948B0FBF5F084B221464FF066
:103D50008040FEF7A9FB01218807FFF704F82646FB
:103D600004EBD67041104FF08040FEF740FD04EBAD
:103D7000D67041104FF08040FEF73BFD70BD10B58E
:103D800004466B48343004600020694924310860DF
:103D900001216748FEF7C6FB012202216448FEF7B5
:103DA000D9FF01218807FEF7BDFB10BD10B5022128
:103DB0005F48FEF7E6FF88B102215D48FEF7F2FF9B
:103DC00000214FF08040FEF7ADFB00215848FEF780
:103DD000A9FB002202215648FEF7BCFF10BD08B522
:103DE0004FF4E060FDF79CFA1D208DF800000120E3
:103DF0008DF8010002208DF8020001208DF80300EB
:103E00006846FDF792FA08BD10B5FFF7E8FFFFF727
:103E1000B1FE40214748FDF7DBFE08214148FDF790
:103E2000D7FE04214048FDF7D3FE4FF400613C4823
:103E3000FDF7CCFE4FF400513A48FDF7C7FE4FF4B2
:103E400080513748FDF7C2FE10213548FDF7BEFE10
:103E500020213348FDF7BAFE10BD10B50446012CF1
:103E600012D141032F48FDF7B1FEE1022C48FDF7C6
:103E7000AFFE10212A48FDF7A9FEFA20FFF7DDFE6C
:103E80006420FFF77CFF18E0A4B94FF400512548E7
:103E9000FDF79CFE4FF400612148FDF799FE1021CB
:103EA0001F48FDF795FEFA20FFF7C7FE6420FFF7D5
:103EB00066FF02E00020FFF762FF10BD10B5044668
:103EC000012C12D1C1021648FDF780FE610315488E
:103ED000FDF77EFE20211248FDF778FE1E20FFF739
:103EE000ACFE6420FFF74BFF18E0A4B94FF400616B
:103EF0000B48FDF76BFE4FF400510A48FDF768FED2
:103F000020210748FDF764FE1E20FFF796FE64207F
:103F1000FFF735FF02E00020FFF731FF10BD000082
:103F2000000002400004024000100240204801004E
:103F300000040040000C024010B5FE480178FE4825
:103F4000FFF726F90A20FFF77BFCFA484178FA4888
:103F5000FFF71EF90A20FFF773FCF6480178F648D0
:103F6000FFF716F90A20FFF76BFCF2484178F24898
:103F7000FFF70EF90A20FFF763FCEE480178EE48E0
:103F8000FFF706F90A20FFF75BFCEA484178EA48A8
:103F9000FFF7FEF80A20FFF753FC42F21070FFF71C
:103FA0004FFC10BD10B5012434B9022C11D0032CE4
:103FB00028D0042C7CD14AE00120FFF74EFF4FF4BB
:103FC0007A70FFF73DFC4FF40061DC48FDF7FEFD21
:103FD0006EE00120FFF741FF4FF47A70FFF730FCED
:103FE0004FF40061D548FDF7F1FD0120FFF735FFE3
:103FF0004FF47A70FFF724FC4FF40061CF48FDF7CF
:10400000E5FD55E00120FFF728FF4FF47A70FFF738
:1040100017FC4FF40061C948FDF7D8FD0120FFF7F8
:104020001CFF4FF47A70FFF70BFC4FF40061C3489C
:10403000FDF7CCFD0120FFF710FF4FF47A70FFF77A
:10404000FFFB4FF40061BD48FDF7C0FD30E00120EB
:10405000FFF703FF4FF47A70FFF7F2FB4FF40061B4
:10406000B648FDF7B3FD0120FFF7F7FE4FF47A7075
:10407000FFF7E6FB4FF40061B048FDF7A7FD012014
:10408000FFF7EBFE4FF47A70FFF7DAFB4FF40061B5
:10409000AA48FDF79BFD0120FFF7DFFE4FF47A7081
:1040A000FFF7CEFB4FF40061A448FDF78FFD00BF82
:1040B00000BF10BD10B500F0CBF94FF40051A0487F
:1040C000FDF786FD9F4801789B48FFF761F81420B3
:1040D000FFF7B6FB9B4841789748FFF759F8142043
:1040E000FFF7AEFB974801789348FFF751F814208B
:1040F000FFF7A6FB934841788F48FFF749F8142053
:10410000FFF79EFB8F4801788B48FFF741F814209A
:10411000FFF796FB8B4841788748FFF739F8142062
:10412000FFF78EFB41F28830FFF78AFB0120FFF793
:10413000C5FE41F28830FFF783FB4FF40051804801
:10414000FDF744FD00F084F94FF400517C48FDF781
:104150003FFD7D4801787848FFF71AF81420FFF7F3
:104160006FFB794841787448FFF712F81420FFF785
:1041700067FB754801787048FFF70AF81420FFF7CD
:104180005FFB714841786C48FFF702F81420FFF795
:1041900057FB6D4801786848FEF7FAFF1420FFF7D7
:1041A0004FFB694841786448FEF7F2FF1420FFF79F
:1041B00047FB41F28830FFF743FB0120FFF77EFE0B
:1041C00041F28830FFF73CFB4FF400515C48FDF7AB
:1041D000FDFC00F03DF94FF400515948FDF7F8FCA3
:1041E0005A4801785448FEF7D3FF1420FFF728FB04
:1041F000564841785048FEF7CBFF1420FFF720FBCC
:10420000524801784C48FEF7C3FF1420FFF718FB13
:104210004E4841784848FEF7BBFF1420FFF710FBDB
:104220004A4801784448FEF7B3FF1420FFF708FB23
:10423000464841784048FEF7ABFF1420FFF700FBEB
:1042400041F28830FFF7FCFA0120FFF737FE41F218
:104250008830FFF7F5FA4FF400513948FDF7B6FC06
:1042600000F0F6F84FF400513548FDF7B1FC38483E
:1042700001783148FEF78CFF1420FFF7E1FA34484B
:1042800041782D48FEF784FF1420FFF7D9FA304813
:1042900001782948FEF77CFF1420FFF7D1FA2C485B
:1042A00041782548FEF774FF1420FFF7C9FA284823
:1042B00001782148FEF76CFF1420FFF7C1FA24486B
:1042C00041781D48FEF764FF1420FFF7B9FA41F268
:1042D0008830FFF7B5FA0120FFF7F0FD41F2883092
:1042E000FFF7AEFA4FF400511548FDF76FFC10BD13
:1042F00010B54FF42F70FFF7CDFB0020FFF7DEFD68
:1043000041F28830FFF79CFA4FF400510C48FDF75A
:104310005DFC4FF42F70FFF7BDFB0020FFF7CEFDD3
:1043200041F28830FFF78CFA4FF400510448FDF752
:104330004DFC0FE03E00002000480040000002401D
:1043400000040240360000203C0000203A0000201B
:10435000380000204FF42F70FFF79CFB0020FFF780
:10436000ADFD41F28830FFF76BFA4FF400511B4866
:10437000FDF72CFC4FF42F70FFF78CFB0020FFF7AC
:104380009DFD41F28830FFF75BFA4FF4005113486E
:10439000FDF71CFC10BD10B5FFF7CEFDFFF702FEC8
:1043A000FFF7C1FBFFF79AFBFFF79DFB4FF47A7015
:1043B000FFF746FAFFF78DFBFFF7C3FB4FF4FA70E8
:1043C000FFF73EFA00F04AF844F62060FFF738FAAB
:1043D000FFF770FEFFF78CFF10BD000000040240E5
:1043E0001CB501210220FDF713FE50200090012092
:1043F0008DF8040000208DF8060003208DF80500DC
:1044000001208DF8070069461748FDF763FB50212E
:104410001548FDF7DBFB1CBD10B504461021124802
:10442000FDF7D6FB2046FFF70BFA10210E48FDF7EB
:10443000CDFB10BD10B5044640210B48FDF7C8FB6D
:104440002046FFF7FDF940210748FDF7BFFB10BDEF
:1044500010B54FF47A70FFF7EDFF10BD10B542F2C2
:104460001070FFF7D9FF10BD000402401CB50121F8
:104470001720FDF7CDFD8020009000208DF804006E
:1044800003208DF8050001208DF807006946784863
:10449000FDF720FB3020009000208DF80400032061
:1044A0008DF8050001208DF8070069467148FDF779
:1044B00011FB4DF20500009000208DF80400032050
:1044C0008DF8050001208DF8070069466A48FDF760
:1044D00001FB4DF20500009000208DF80400032040
:1044E0008DF8050001208DF8070069466248FDF748
:1044F000F1FA01208DF804008DF8070002208DF8F4
:1045000005006120009069465C48FDF7E3FA6121EF
:104510005A48FDF75DFB1CBD10B580215448FDF7DE
:104520003BFB30B310215348FDF736FB08B3202185
:104530005048FDF731FBE0B101214F48FDF72CFB5E
:10454000B8B104214C48FDF727FB90B14FF48051DE
:104550004948FDF721FB60B14FF480414648FDF723
:104560001BFB30B14FF400414348FDF715FB002819
:1045700079D10A20FFF764F980213D48FDF70CFB53
:1045800040B900BF80213A48FDF706FB0028F9D06A
:10459000012010BD10213748FDF7FEFA40B900BFD9
:1045A00010213448FDF7F8FA0028F9D00220F0E78E
:1045B00020213048FDF7F0FA40B900BF20212D48F6
:1045C000FDF7EAFA0028F9D00320E2E701212A48A2
:1045D000FDF7E2FA40B900BF01212748FDF7DCFAF8
:1045E0000028F9D00420D4E704212348FDF7D4FAA9
:1045F00040B900BF04212048FDF7CEFA0028F9D0C9
:104600000520C6E74FF480511B48FDF7C5FA48B9AD
:1046100000BF4FF480511848FDF7BEFA0028F8D0CB
:104620000620B6E74FF480411348FDF7B5FA48B9C4
:1046300000BF4FF480411048FDF7AEFA0028F8D0D3
:104640000720A6E74FF400410B48FDF7A5FA60B933
:1046500000BF4FF400410848FDF79EFA0028F8D04B
:10466000082096E7FFE7092093E700BF91E70000E5
:104670000000024000080240000402400010024016
:10468000014607E0002001E0421C90B241F288326E
:104690009042F9DB0A00A1F1010399B2F2D170470F
:1046A0004FF0C04108807047FE4908807047FD49BF
:1046B0000888704700B502460B462A20FFF7F0FF36
:1046C0001012FFF7F1FFD0B2FFF7EEFF0120FFF766
:1046D000EBFFDF20FFF7E8FF2B20FFF7E1FF1812C9
:1046E000FFF7E2FFD8B2FFF7DFFF0120FFF7DCFFA3
:1046F000DF20FFF7D9FF00BD2DE9F04305460E4648
:1047000000240027A046A146E7484088A84203DDD0
:10471000E5488088B04202DC0020BDE8F0833146E5
:104720002846FFF7C7FF2E20FFF7BAFFFFF7BFFFAE
:104730000446FFF7BCFF044604F0FC00C70004F485
:104740007844FFF7B4FF4FEAD02844EA070040EA74
:1047500008094846E1E71CB501211C20FDF758FC7B
:1047600002208DF8040000208DF8060003208DF84B
:10477000050001208DF80700802000906946CB4895
:10478000FDF7A8F90C220721C848FDF72EFA4FF4CF
:10479000006000906946C548FDF79CF90C220B218A
:1047A000C248FDF722FA202000906946BF48FDF775
:1047B00091F90C220521BD48FDF717FA1020009051
:1047C0006946BA48FDF786F90C220421B748FDF77F
:1047D0000CFA4FF4804000906946B448FDF77AF92E
:1047E0000C220E21B148FDF700FA4FF40040009072
:1047F0006946AE48FDF76EF90C220F21AB48FDF774
:10480000F4F9012000906946A848FDF763F90C22ED
:104810000021A648FDF7E9F9022000906946A34867
:10482000FDF758F90C220121A048FDF7DEF98020A0
:10483000009069469E48FDF74DF90C2207219C48DF
:10484000FDF7D3F94FF48070009069469848FDF762
:1048500041F90C2208219648FDF7C7F94FF4007082
:10486000009069469248FDF735F90C2209219048DD
:10487000FDF7BBF94FF48060009069468C48FDF766
:1048800029F90C220A218A48FDF7AFF94FF400609C
:10489000009069468648FDF71DF90C220B218448DB
:1048A000FDF7A3F94FF48050009069468048FDF76A
:1048B00011F90C2211467E48FDF797F94FF400508C
:1048C000009069467A48FDF705F90C220D217848D9
:1048D000FDF78BF94FF48040009069467448FDF76E
:1048E000F9F80C220E217248FDF77FF94FF40040D1
:1048F000009069466E48FDF7EDF80C220F216C48D8
:10490000FDF773F94FF48070009069466748FDF732
:10491000E1F80C2208216548FDF767F94FF40070B3
:10492000009069466148FDF7D5F80C2209215F48DF
:10493000FDF75BF94FF48060009069465B48FDF736
:10494000C9F80C220A215948FDF74FF901208DF8CA
:10495000040000208DF806008DF8050001208DF878
:1049600007000420009069465248FDF7B3F84FF461
:104970008050009069464D48FDF7ACF84FF48051E7
:104980004A48FDF723F91CBD00B597B00121084640
:10499000FDF776FB0020109011900320129000206C
:1049A000139014901590169001900290039010208F
:1049B00004900020059007900690089009904FF40D
:1049C00080500A9000200B904FF480400C90002003
:1049D0000D9010A80F9001A8FCF72DFD01210020DB
:1049E000FCF7B4FD17B000BD10B500240021084647
:1049F000FFF760FE2C20FFF753FE00BF04E02A48BB
:104A0000808928490880641CB4F5163FF7D310BD8F
:104A100000B5024624480274007C58BB3620FFF7DC
:104A20003FFE2820FFF740FE2A20FFF739FE002036
:104A3000FFF73AFE0020FFF737FE0120FFF734FEB4
:104A4000DF20FFF731FE2B20FFF72AFE0020FFF7C3
:104A50002BFE0020FFF728FE0120FFF725FE3F2058
:104A6000FFF722FE4FF4F0700F4948804FF4A0701A
:104A7000888039E00C48007C012835D13620FFF7CA
:104A80000FFE4820FFF710FE2A20FFF709FE002046
:104A9000FFF70AFE0020FFF707FE0120FFF704FEE4
:104AA0003F2009E000000260D8020020000C024014
:104AB0000010024000080240FFF7F6FD2B20FFF730
:104AC000EFFD0020FFF7F0FD0020FFF7EDFD0120D6
:104AD000FFF7EAFDDF20FFF7E7FD4FF4A070FC4988
:104AE00048804FF4F070888000BDF94948747047E1
:104AF000F8490860704730B500230021002200F417
:104B00007804230A00F47C446109C0F3C40243EA38
:104B100001041443EE4DAC6030BD30B500230021DC
:104B2000002200F47804230A00F47C446109C0F3F5
:104B3000C40243EA01041443E54DEC6030BD10B5F6
:104B4000FFF709FEFFF720FF0421E348FDF740F8D7
:104B50001E20FFF795FD0421DF48FDF737F81E20E2
:104B6000FFF78EFDD320FFF79BFDFFF7A0FDD8498F
:104B70000880FFF79CFDD6490880FFF798FDD449CF
:104B80000880084600884FF6FF7101EA0020D049EE
:104B90000880FFF78CFDCE4909880843CC4908807E
:104BA00008460188CDA000F001FDC948008849F2FF
:104BB0008841884201D000BFFEE7E020FFF770FD8A
:104BC0000020FFF771FD0320FFF76EFD0C20FFF7BB
:104BD0006BFD0920FFF768FD1720FFF765FD092031
:104BE000FFF762FD3E20FFF75FFD8920FFF75CFDC8
:104BF0004920FFF759FD0820FFF756FD0D20FFF76C
:104C000053FD0A20FFF750FD1320FFF74DFD15203F
:104C1000FFF74AFD0F20FFF747FDE120FFF740FDBA
:104C20000020FFF741FD1120FFF73EFD1520FFF7A3
:104C30003BFD0320FFF738FD0F20FFF735FD052072
:104C4000FFF732FD2D20FFF72FFD3420FFF72CFD5D
:104C50004120FFF729FD0220FFF726FD0B20FFF77B
:104C600023FD0A20FFF720FD3320FFF71DFD37202D
:104C7000FFF71AFD0F20FFF717FDC020FFF710FD0B
:104C80001720FFF711FD1520FFF70EFDC120FFF7DC
:104C900007FD4120FFF708FDC520FFF701FD0020BB
:104CA000FFF702FD1220FFF7FFFC8020FFF7FCFC5E
:104CB0003620FFF7F5FC4820FFF7F6FC3A20FFF717
:104CC000EFFC5520FFF7F0FCB020FFF7E9FC0020D7
:104CD000FFF7EAFCB120FFF7E3FCA020FFF7E4FCBC
:104CE000B420FFF7DDFC0220FFF7DEFCB620FFF763
:104CF000D7FC0220FFF7D8FC0220FFF7D5FCE92003
:104D0000FFF7CEFC0020FFF7CFFCF720FFF7C8FC31
:104D1000A920FFF7C9FC5120FFF7C6FC2C20FFF7A4
:104D2000C3FC8220FFF7C0FC1120FFF7B9FC7820FC
:104D3000FEF786FD2920FFF7B3FC0020FFF7EDFE0C
:104D40006FF07F40FFF7D7FE6848FFF7D1FE0120E4
:104D5000FFF7CBFE0120FFF75BFEFFF745FE10BD1E
:104D600070B505460E46144631462846FFF7A2FCAC
:104D70002C20FFF795FC5E48048070BD2DE9F047BC
:104D80000446884615460026B1462746A5F1200070
:104D9000C5B200BF38E04F48006800684D49096857
:104DA000098905FB016110F801A04FF0000925E019
:104DB0000AF0010038B14648008982B241463846BF
:104DC000FFF7CEFF06E04248808982B2414638466E
:104DD000FFF7C6FF4FEA6A0A781C87B2381B3D49C5
:104DE00009688988884205D1274608F101001FFA21
:104DF00080F806E009F101001FFA80F9B9F1080F07
:104E0000D6DB00BF701C86B2324800680089B04211
:104E1000C1DCBDE8F08770B505460E4614460AE0D1
:104E2000227831462846FFF7A9FF2A480068808883
:104E3000284485B2641C26484088A84202DD2078B8
:104E40000028EDD170BD70B50246012304E003EBEC
:104E5000830463004C1EE1B20029F8DCB2FBF3F4DA
:104E60000A25B4FBF5F605FB164070BD2DE9F047A9
:104E70000546894690461E464FF0000A00244AE047
:104E8000301B401EC1B24046FFF7DDFF0746BAF1B6
:104E9000000F31D1701EA0422EDDC7B90C48407CF6
:104EA00050B90C490968898804FB015188B2302245
:104EB0004946FFF763FF09E006490968898804FB52
:104EC000015188B220224946FFF758FF21E011E046
:104ED000D80200204000002000080240204C43443B
:104EE0002049443A494C4925780D0A0050000020D9
:104EF000000002604FF0010A07F13001CAB2FE491A
:104F00000968898804FB015188B24946FFF736FFDA
:104F100000BF601CC4B2B442B2DBBDE8F0872DE92B
:104F2000F04F89B005460E4691469A460027B8468E
:104F3000BB4600200890079006900590049000243E
:104F40000390029001900090A9EB0500002802DD7B
:104F5000A9EB050001E0A5EB090007B2AAEB0600EA
:104F6000002802DDAAEB060001E0A6EB0A000FFA1A
:104F700080F80FFA85FB30B20890A94503DB0120C9
:104F80000790069003E04FF0FF3007900690B2457F
:104F900003DB01200590049003E04FF0FF30059003
:104FA000049047450DDB0020079004903C463846AE
:104FB00007EBD071491009B20391CDF80880019731
:104FC0000CE00020069005904446404608EBD07166
:104FD000491009B203910297CDF804800020009097
:104FE0002AE0C64B1B899AB2089B99B21FFA8BF034
:104FF000FFF7B6FEDDE90210084400B20390039803
:10500000A0420CDB0398001B00B2039007985844A1
:105010000FFA80FB05990898084400B2089006989A
:1050200058440FFA80FB04990898084400B208908D
:105030000098401C00B20090DDE900018842D0DDFC
:1050400009B0BDE8F08FF0B504460D4616461F4680
:10505000A01982B22B4629462046FFF760FFE819C7
:1050600083B2A01982B2E81981B22046FFF757FF38
:10507000E81983B2224629462046FFF750FFE91976
:105080008BB2A1198AB2A11988B22946FFF747FF4E
:10509000F0BD2DE9F04706460F469146C9F10004E0
:1050A00000254FEA4900C0F1020800BF934B1B895D
:1050B0009AB27B1999B2331B98B2FFF751FE8F4B0E
:1050C0001B899AB27B1999B2331998B2FFF748FE3F
:1050D0008A4B1B899AB27B1B99B2331998B2FFF79E
:1050E0003FFE864B1B899AB27B1B99B2331B98B249
:1050F000FFF736FEC246AA450BDC681C05460121B7
:1051000001EB40008044EC4203D1A24501DC4FF0AA
:10511000000AA24505DD601C0446012101EB4000A8
:105120008044002CC2DDBDE8F0872DE9F84F06462B
:105130000F4691469B46C9F1000400254FEA4900FD
:10514000C0F10208DFED6E1AB0EE610ADFED6C1AF5
:10515000F0EE610ADFED6A1AB0EE611A01EE909A84
:10516000F8EEE11AF0EE610A01EE90BAF8EEE11AFB
:10517000B0EE611AD94573DD00BFC0EE811AB0EE02
:10518000610A01EE905AF8EEE11A81EE802AFCEEF7
:10519000C21A11EE900A384480B258490090098929
:1051A0008AB2311B88B20099FFF7DAFD01EE905AFE
:1051B000F8EEE11A81EE802AFCEEC21A11EE900A96
:1051C000384480B24D49009009898AB2311988B2B9
:1051D0000099FFF7C5FD01EE905AF8EEE11A81EE55
:1051E000802AFCEEC21A11EE900A381A80B24349A6
:1051F000009009898AB2311988B20099FFF7B0FD91
:1052000001EE905AF8EEE11A81EE802AFCEEC21A05
:1052100011EE900A381A80B23849009009898AB292
:10522000311B88B20099FFF79BFDC246AA450BDCF3
:10523000681C0546012101EB40008044EC4203D18B
:10524000A24501DC4FF0000AA24505DD601C0446C2
:10525000012101EB40008044002C8EDD7CE0FFE763
:10526000CBF10005002400BFC1EE201AB0EE610AA8
:1052700001EE904AF8EEE11A81EE802AFCEEC21AA5
:1052800011EE900A301A80B200901C48008982B258
:10529000781981B20098FFF763FD01EE904AF8EEAD
:1052A000E11A81EE802AFCEEC21A11EE900A304417
:1052B00080B200901148008982B2781981B20098BA
:1052C000FFF74EFD01EE904AF8EEE11A81EE802ADA
:1052D000FCEEC21A11EE900A304480B200900748EA
:1052E000008982B2781B81B20098FFF739FD01EE88
:1052F000904AF8EEE11A05E040000020D8020020B4
:105300000000000081EE802AFCEEC21A11EE900A25
:10531000301A80B200909F48008982B2781B81B217
:105320000098FFF71DFDC246A2450BDC601C044639
:1053300000EB4000401C8044E54203D1AA4501DC5B
:105340004FF0000AAA4505DD681C054600EB400049
:10535000401C8044002D87DDBDE8F88F2DE9F04327
:1053600081460D4616461F460024A04600BF16E0A3
:10537000281981B24846FFF79DF92C20FFF790F9D4
:105380004FF0000807E0834800898349088008F14E
:1053900001001FFA80F8B045F5DB601C84B2BC4206
:1053A000E6DBBDE8F0832DE9F04706460F46904660
:1053B0000320A0EB48090024454664E04DB3A7EB69
:1053C000050C4FF0020A0AFB05CC1FFA8CF3A6EB82
:1053D000040C1FFA8CF2A7EB050C1FFA8CF1A6EB5C
:1053E000040C1FFA8CF0FFF79AFDA7EB050C0AFBE3
:1053F00005CC1FFA8CF306EB040C1FFA8CF2A7EB1A
:10540000050C1FFA8CF106EB040C1FFA8CF0FFF769
:1054100086FD4CB3A7EB040C4FF0020A0AFB04CC48
:105420001FFA8CF3A6EB050C1FFA8CF2A7EB040C09
:105430001FFA8CF1A6EB050C1FFA8CF0FFF76FFD3D
:10544000A7EB040C0AFB04CC1FFA8CF306EB050C4B
:105450001FFA8CF2A7EB040C1FFA8CF106EB050C7B
:105460001FFA8CF0FFF75BFDB9F1000F04DA06209C
:1054700000EB8400814405E0601B0A2101EB800001
:1054800081446D1E641CAC4298D942463946304670
:10549000FFF7FFFDBDE8F0872DE9FF4F81B005461E
:1054A0008946164600240027A246A84613E03B483A
:1054B000005D3178884208D13849601C085C7178F9
:1054C000884202D1A001009006E0A01CC4B233487B
:1054D000005D00B900E0EAE700BF002731E0009876
:1054E00038442F4911F800B04FF0000A23E00BF0C8
:1054F000010038B12748008982B249464046FFF78B
:105500002FFC04E049464046049AFFF729FC4FEA85
:105510006B0B08F101001FFA80F8A8EB05002028AA
:1055200005D1A84609F101001FFA80F906E00AF149
:1055300001001FFA80FABAF1080FD8DB00BF781C0F
:1055400087B2802FCBDB05B0BDE8F08FF0B5054604
:105550000E4614461F4618E0207880280BDC22787F
:1055600031462846FFF70AFC0E4800688088284428
:1055700085B2641C09E03B46224631462846FFF7C7
:105580008BFF05F1200085B2A41C20780028E3D110
:10559000F0BD0000D8020020000002609C58000806
:1055A000EB58000840000020704700000FB4044989
:1055B00010B503AA029800F0FFF810BC5DF814FBC8
:1055C000280000202DE9F0410E460446002020620C
:1055D0002046E168884730B3252805D0D4E9012169
:1055E0009047206A401CF2E7E16820460027884780
:1055F000050018D0A5F14100192802D820354FF434
:1056000000673246294620462760FAF7F7FD40B189
:10561000012804D0F61D26F007060836D8E7361D07
:10562000D6E72846DAE7206ABDE8F0812DE9F041A7
:105630000646002410687529314616A510D0AFF330
:105640000080002802DA404213A507E031688A078B
:1056500001D512A502E0490704D511A5012401E0F6
:10566000AFF3008000210A2206F1240709E0B0FB15
:10567000F2FCB0FBF2F302FB1C0030307854184609
:10568000491C0028F3D123462A463046BDE8F041A4
:1056900000F038B8000000002D0000002B000000D2
:1056A0002000000070B504460D4621461068AFF397
:1056B00000802188090502D50F4A7A4402E00E4A8B
:1056C0007A440E32002104F1240305E000F00F06B5
:1056D0000009965D5E54491C0028F7D1207800230C
:1056E000000704D5702D02D009B1022311322046E3
:1056F000BDE8704000F006B8795800007047704768
:10570000704770472DE9F0470D469946924604468A
:1057100000F124080168880604D5E06921F0100131
:10572000216000E00120A84201DD471B00E00027C6
:10573000A1697A1902EB0900081AA0612078C00655
:1057400002D42046AFF30080002608E0D4E901210E
:105750001AF806009047206A401C761C20624E45CD
:10576000F4DB2078C0060AD52046AFF3008006E0BF
:10577000D4E9012130209047206A401C2062381E65
:10578000A7F10107F4DC07E0D4E9012118F80500CE
:105790009047206A401C2062281EA5F10105F3DC19
:1057A0002046AFF300802078000602D50220BDE835
:1057B000F0870120FBE70000074B70B50D467B44E6
:1057C00000F011F80446284600F020F810B14FF020
:1057D000FF3070BD204670BDF3DBFFFF01694A1C3E
:1057E00002610878704700B58FB0CDE90131002122
:1057F000059105497944CDE9031011466846FFF744
:10580000E1FE0FB000BD0000E5FFFFFF007B00F0F0
:1058100080007047754600F029F8AE4605006946DD
:10582000534620F00700854618B020B5FBF766FD0B
:10583000BDE820404FF000064FF000074FF0000891
:105840004FF0000B21F00701AC46ACE8C009ACE812
:10585000C009ACE8C009ACE8C0098D4670470446F1
:10586000AFF300802046FAF7E0FC000000487047E4
:10587000EC0200204FF04070E1EE100A704700008B
:105880000F0000000F000000FF0000000F000000EC
:105890000F0000000F00000000000000CAD6CAC6BA
:1058A000D3EFD2F4CAB6B1F0D6D0C5DDB2E8CFB4EA
:1058B000B1ADCCFAB9DBD2F4B5A5B4D4B2E8C6D553
:1058C000B6FDB2E8C4BEBAECC5DBC8B7C8CFC4A346
:1058D000CABDD1A1D4F1C8DABACFBDE7C3E6BDBB1A
:1058E000BBA5D2B6CBAECFC9B4F300000000000018
:1058F000000000000000010000F0030080FF07F03E
:10590000FF01000080010000800100008001000014
:1059100080010000800103F0FFFF0700800100000C
:105920008001000080010000800100008001000073
:10593000800118FEFFFF3F00800100008001000091
:105940008001000080010000800100008001000053
:105950008001000080010000C0010000FC00000088
:10596000E0000000600000000000000000000000F7
:105970000000000001040000071C0000030C0000F0
:10598000030C0000130C01F87FFC0300838F01005F
:10599000038C0100338C01000F8401F883870138E8
:1059A00003861108031F110083311100C320131057
:1059B00063001EE0FB001C80650019F8FFFF070074
:1059C0002000030030000300300001001800010037
:1059D000188001000C8001000684018001F800603D
:1059E00000E0001C0020000000000000000000009B
:1059F000000000000000001000000420F8FF0F600D
:105A0000000600C0000600C00002004000030100C4
:105A1000F0FF03000083010000830140008301FECA
:105A2000008101C0808111C0FCFF3FC0000000C0A8
:105A3000000000C0000000C0200002C0E0FF07C05E
:105A4000600006C0680006C0640006C0620006C0B0
:105A5000610006E0600006C060000600E0FF07008D
:105A60006000060060000000000000000000000070
:105A70000000000040000000C001000080010000A4
:105A8000800103E0FFFF0700041000000C3000005D
:105A900018300000381000003818000030080800E6
:105AA00010041CFCFFFF3F0000000000000000008D
:105AB00001800000FFFF010003C0000003C00000E0
:105AC00003C0000003C00000FFFF000003C000008F
:105AD00003C0000003C00000FFFF000003C000007F
